{
  "address": "0x3b4646d094099c89377C729e60f9E143dBCd61A0",
  "abi": [
    {
      "inputs": [],
      "stateMutability": "nonpayable",
      "type": "constructor"
    },
    {
      "inputs": [],
      "name": "Fundraiser__Completed",
      "type": "error"
    },
    {
      "inputs": [],
      "name": "Fundraiser__DoesNotExist",
      "type": "error"
    },
    {
      "inputs": [],
      "name": "Fundraiser__DonatedZero",
      "type": "error"
    },
    {
      "inputs": [],
      "name": "Fundraiser__NotEnoughBalance",
      "type": "error"
    },
    {
      "inputs": [],
      "name": "Fundraiser__NotOwner",
      "type": "error"
    },
    {
      "inputs": [],
      "name": "Fundraiser__OverPayment",
      "type": "error"
    },
    {
      "inputs": [],
      "name": "Fundraiser__TransferFailed",
      "type": "error"
    },
    {
      "anonymous": false,
      "inputs": [
        {
          "indexed": true,
          "internalType": "address",
          "name": "owner",
          "type": "address"
        },
        {
          "indexed": true,
          "internalType": "address",
          "name": "approved",
          "type": "address"
        },
        {
          "indexed": true,
          "internalType": "uint256",
          "name": "tokenId",
          "type": "uint256"
        }
      ],
      "name": "Approval",
      "type": "event"
    },
    {
      "anonymous": false,
      "inputs": [
        {
          "indexed": true,
          "internalType": "address",
          "name": "owner",
          "type": "address"
        },
        {
          "indexed": true,
          "internalType": "address",
          "name": "operator",
          "type": "address"
        },
        {
          "indexed": false,
          "internalType": "bool",
          "name": "approved",
          "type": "bool"
        }
      ],
      "name": "ApprovalForAll",
      "type": "event"
    },
    {
      "anonymous": false,
      "inputs": [
        {
          "indexed": true,
          "internalType": "address",
          "name": "from",
          "type": "address"
        },
        {
          "indexed": true,
          "internalType": "uint256",
          "name": "tokenId",
          "type": "uint256"
        },
        {
          "indexed": false,
          "internalType": "uint256",
          "name": "amount",
          "type": "uint256"
        }
      ],
      "name": "Donation",
      "type": "event"
    },
    {
      "anonymous": false,
      "inputs": [
        {
          "indexed": true,
          "internalType": "uint256",
          "name": "tokenId",
          "type": "uint256"
        }
      ],
      "name": "EndCampaign",
      "type": "event"
    },
    {
      "anonymous": false,
      "inputs": [
        {
          "indexed": true,
          "internalType": "address",
          "name": "owner",
          "type": "address"
        },
        {
          "indexed": true,
          "internalType": "uint256",
          "name": "tokenId",
          "type": "uint256"
        },
        {
          "indexed": false,
          "internalType": "uint256",
          "name": "extendAmt",
          "type": "uint256"
        }
      ],
      "name": "ExtendCampaign",
      "type": "event"
    },
    {
      "anonymous": false,
      "inputs": [
        {
          "indexed": true,
          "internalType": "address",
          "name": "owner",
          "type": "address"
        },
        {
          "indexed": true,
          "internalType": "uint256",
          "name": "tokenId",
          "type": "uint256"
        },
        {
          "indexed": false,
          "internalType": "uint256",
          "name": "requiredAmt",
          "type": "uint256"
        }
      ],
      "name": "StartCampaign",
      "type": "event"
    },
    {
      "anonymous": false,
      "inputs": [
        {
          "indexed": true,
          "internalType": "address",
          "name": "from",
          "type": "address"
        },
        {
          "indexed": true,
          "internalType": "address",
          "name": "to",
          "type": "address"
        },
        {
          "indexed": true,
          "internalType": "uint256",
          "name": "tokenId",
          "type": "uint256"
        }
      ],
      "name": "Transfer",
      "type": "event"
    },
    {
      "anonymous": false,
      "inputs": [
        {
          "indexed": true,
          "internalType": "uint256",
          "name": "tokenId",
          "type": "uint256"
        },
        {
          "indexed": false,
          "internalType": "uint256",
          "name": "withdrawedAmt",
          "type": "uint256"
        }
      ],
      "name": "Withdraw",
      "type": "event"
    },
    {
      "inputs": [
        {
          "internalType": "address",
          "name": "to",
          "type": "address"
        },
        {
          "internalType": "uint256",
          "name": "tokenId",
          "type": "uint256"
        }
      ],
      "name": "approve",
      "outputs": [],
      "stateMutability": "nonpayable",
      "type": "function"
    },
    {
      "inputs": [
        {
          "internalType": "address",
          "name": "owner",
          "type": "address"
        }
      ],
      "name": "balanceOf",
      "outputs": [
        {
          "internalType": "uint256",
          "name": "",
          "type": "uint256"
        }
      ],
      "stateMutability": "view",
      "type": "function"
    },
    {
      "inputs": [
        {
          "internalType": "uint256",
          "name": "tokenId",
          "type": "uint256"
        }
      ],
      "name": "donate",
      "outputs": [],
      "stateMutability": "payable",
      "type": "function"
    },
    {
      "inputs": [
        {
          "internalType": "uint256",
          "name": "tokenId",
          "type": "uint256"
        }
      ],
      "name": "endCampaign",
      "outputs": [],
      "stateMutability": "nonpayable",
      "type": "function"
    },
    {
      "inputs": [
        {
          "internalType": "uint256",
          "name": "tokenId",
          "type": "uint256"
        },
        {
          "internalType": "uint256",
          "name": "extendAmt",
          "type": "uint256"
        }
      ],
      "name": "extendCampaign",
      "outputs": [],
      "stateMutability": "nonpayable",
      "type": "function"
    },
    {
      "inputs": [
        {
          "internalType": "uint256",
          "name": "tokenId",
          "type": "uint256"
        }
      ],
      "name": "getApproved",
      "outputs": [
        {
          "internalType": "address",
          "name": "",
          "type": "address"
        }
      ],
      "stateMutability": "view",
      "type": "function"
    },
    {
      "inputs": [
        {
          "internalType": "uint256",
          "name": "tokenId",
          "type": "uint256"
        }
      ],
      "name": "getCampaign",
      "outputs": [
        {
          "components": [
            {
              "internalType": "uint256",
              "name": "currAmt",
              "type": "uint256"
            },
            {
              "internalType": "uint256",
              "name": "requiredAmt",
              "type": "uint256"
            },
            {
              "internalType": "bool",
              "name": "completed",
              "type": "bool"
            }
          ],
          "internalType": "struct Fundraiser.Campaign",
          "name": "",
          "type": "tuple"
        }
      ],
      "stateMutability": "view",
      "type": "function"
    },
    {
      "inputs": [],
      "name": "getLastTokenId",
      "outputs": [
        {
          "internalType": "uint256",
          "name": "",
          "type": "uint256"
        }
      ],
      "stateMutability": "view",
      "type": "function"
    },
    {
      "inputs": [
        {
          "internalType": "address",
          "name": "owner",
          "type": "address"
        },
        {
          "internalType": "address",
          "name": "operator",
          "type": "address"
        }
      ],
      "name": "isApprovedForAll",
      "outputs": [
        {
          "internalType": "bool",
          "name": "",
          "type": "bool"
        }
      ],
      "stateMutability": "view",
      "type": "function"
    },
    {
      "inputs": [],
      "name": "name",
      "outputs": [
        {
          "internalType": "string",
          "name": "",
          "type": "string"
        }
      ],
      "stateMutability": "view",
      "type": "function"
    },
    {
      "inputs": [
        {
          "internalType": "uint256",
          "name": "tokenId",
          "type": "uint256"
        }
      ],
      "name": "ownerOf",
      "outputs": [
        {
          "internalType": "address",
          "name": "",
          "type": "address"
        }
      ],
      "stateMutability": "view",
      "type": "function"
    },
    {
      "inputs": [
        {
          "internalType": "address",
          "name": "from",
          "type": "address"
        },
        {
          "internalType": "address",
          "name": "to",
          "type": "address"
        },
        {
          "internalType": "uint256",
          "name": "tokenId",
          "type": "uint256"
        }
      ],
      "name": "safeTransferFrom",
      "outputs": [],
      "stateMutability": "nonpayable",
      "type": "function"
    },
    {
      "inputs": [
        {
          "internalType": "address",
          "name": "from",
          "type": "address"
        },
        {
          "internalType": "address",
          "name": "to",
          "type": "address"
        },
        {
          "internalType": "uint256",
          "name": "tokenId",
          "type": "uint256"
        },
        {
          "internalType": "bytes",
          "name": "data",
          "type": "bytes"
        }
      ],
      "name": "safeTransferFrom",
      "outputs": [],
      "stateMutability": "nonpayable",
      "type": "function"
    },
    {
      "inputs": [
        {
          "internalType": "address",
          "name": "operator",
          "type": "address"
        },
        {
          "internalType": "bool",
          "name": "approved",
          "type": "bool"
        }
      ],
      "name": "setApprovalForAll",
      "outputs": [],
      "stateMutability": "nonpayable",
      "type": "function"
    },
    {
      "inputs": [
        {
          "internalType": "string",
          "name": "_tokenURI",
          "type": "string"
        },
        {
          "internalType": "uint256",
          "name": "_requiredAmt",
          "type": "uint256"
        }
      ],
      "name": "startCampaign",
      "outputs": [],
      "stateMutability": "nonpayable",
      "type": "function"
    },
    {
      "inputs": [
        {
          "internalType": "bytes4",
          "name": "interfaceId",
          "type": "bytes4"
        }
      ],
      "name": "supportsInterface",
      "outputs": [
        {
          "internalType": "bool",
          "name": "",
          "type": "bool"
        }
      ],
      "stateMutability": "view",
      "type": "function"
    },
    {
      "inputs": [],
      "name": "symbol",
      "outputs": [
        {
          "internalType": "string",
          "name": "",
          "type": "string"
        }
      ],
      "stateMutability": "view",
      "type": "function"
    },
    {
      "inputs": [
        {
          "internalType": "uint256",
          "name": "tokenId",
          "type": "uint256"
        }
      ],
      "name": "tokenURI",
      "outputs": [
        {
          "internalType": "string",
          "name": "",
          "type": "string"
        }
      ],
      "stateMutability": "view",
      "type": "function"
    },
    {
      "inputs": [
        {
          "internalType": "address",
          "name": "from",
          "type": "address"
        },
        {
          "internalType": "address",
          "name": "to",
          "type": "address"
        },
        {
          "internalType": "uint256",
          "name": "tokenId",
          "type": "uint256"
        }
      ],
      "name": "transferFrom",
      "outputs": [],
      "stateMutability": "nonpayable",
      "type": "function"
    },
    {
      "inputs": [
        {
          "internalType": "uint256",
          "name": "tokenId",
          "type": "uint256"
        },
        {
          "internalType": "uint256",
          "name": "amount",
          "type": "uint256"
        }
      ],
      "name": "withdraw",
      "outputs": [],
      "stateMutability": "nonpayable",
      "type": "function"
    }
  ],
  "transactionHash": "0x866802d9b8b7311d11aa316b88420e858068f68d93cba642231d7c7ee75c61ee",
  "args": [],
  "numDeployments": 1,
  "solcInputHash": "37e28913fbbf134a96574a18a7bd6801",
  "bytecode": "0x60806040523480156200001157600080fd5b506040518060400160405280601581526020017f46756e6472616973657220436f6c6c656374696f6e00000000000000000000008152506040518060400160405280600381526020017f4652430000000000000000000000000000000000000000000000000000000000815250816000908051906020019062000096929190620000b8565b508060019080519060200190620000af929190620000b8565b505050620001cd565b828054620000c69062000197565b90600052602060002090601f016020900481019282620000ea576000855562000136565b82601f106200010557805160ff191683800117855562000136565b8280016001018555821562000136579182015b828111156200013557825182559160200191906001019062000118565b5b50905062000145919062000149565b5090565b5b80821115620001645760008160009055506001016200014a565b5090565b7f4e487b7100000000000000000000000000000000000000000000000000000000600052602260045260246000fd5b60006002820490506001821680620001b057607f821691505b60208210811415620001c757620001c662000168565b5b50919050565b6133e380620001dd6000396000f3fe60806040526004361061011f5760003560e01c806370a08231116100a0578063c87b56dd11610064578063c87b56dd146103f5578063da356c7214610432578063dd0408ae1461045b578063e985e9c514610484578063f14faf6f146104c15761011f565b806370a082311461031057806383c4c00d1461034d57806395d89b4114610378578063a22cb465146103a3578063b88d4fde146103cc5761011f565b806342842e0e116100e757806342842e0e1461021b578063441a3e70146102445780635598f8cc1461026d5780636352211e146102aa5780636aeac029146102e75761011f565b806301ffc9a71461012457806306fdde0314610161578063081812fc1461018c578063095ea7b3146101c957806323b872dd146101f2575b600080fd5b34801561013057600080fd5b5061014b600480360381019061014691906122ef565b6104dd565b6040516101589190612337565b60405180910390f35b34801561016d57600080fd5b506101766105bf565b60405161018391906123eb565b60405180910390f35b34801561019857600080fd5b506101b360048036038101906101ae9190612443565b610651565b6040516101c091906124b1565b60405180910390f35b3480156101d557600080fd5b506101f060048036038101906101eb91906124f8565b610697565b005b3480156101fe57600080fd5b5061021960048036038101906102149190612538565b6107af565b005b34801561022757600080fd5b50610242600480360381019061023d9190612538565b61080f565b005b34801561025057600080fd5b5061026b6004803603810190610266919061258b565b61082f565b005b34801561027957600080fd5b50610294600480360381019061028f9190612443565b610a67565b6040516102a1919061262b565b60405180910390f35b3480156102b657600080fd5b506102d160048036038101906102cc9190612443565b610ac3565b6040516102de91906124b1565b60405180910390f35b3480156102f357600080fd5b5061030e6004803603810190610309919061258b565b610b75565b005b34801561031c57600080fd5b5061033760048036038101906103329190612646565b610cc3565b6040516103449190612682565b60405180910390f35b34801561035957600080fd5b50610362610d7b565b60405161036f9190612682565b60405180910390f35b34801561038457600080fd5b5061038d610d85565b60405161039a91906123eb565b60405180910390f35b3480156103af57600080fd5b506103ca60048036038101906103c591906126c9565b610e17565b005b3480156103d857600080fd5b506103f360048036038101906103ee919061283e565b610e2d565b005b34801561040157600080fd5b5061041c60048036038101906104179190612443565b610e8f565b60405161042991906123eb565b60405180910390f35b34801561043e57600080fd5b5061045960048036038101906104549190612921565b610fa2565b005b34801561046757600080fd5b50610482600480360381019061047d9190612443565b611089565b005b34801561049057600080fd5b506104ab60048036038101906104a69190612981565b61126e565b6040516104b89190612337565b60405180910390f35b6104db60048036038101906104d69190612443565b611302565b005b60007f80ac58cd000000000000000000000000000000000000000000000000000000007bffffffffffffffffffffffffffffffffffffffffffffffffffffffff1916827bffffffffffffffffffffffffffffffffffffffffffffffffffffffff191614806105a857507f5b5e139f000000000000000000000000000000000000000000000000000000007bffffffffffffffffffffffffffffffffffffffffffffffffffffffff1916827bffffffffffffffffffffffffffffffffffffffffffffffffffffffff1916145b806105b857506105b7826114ab565b5b9050919050565b6060600080546105ce906129f0565b80601f01602080910402602001604051908101604052809291908181526020018280546105fa906129f0565b80156106475780601f1061061c57610100808354040283529160200191610647565b820191906000526020600020905b81548152906001019060200180831161062a57829003601f168201915b5050505050905090565b600061065c82611515565b6004600083815260200190815260200160002060009054906101000a900473ffffffffffffffffffffffffffffffffffffffff169050919050565b60006106a282610ac3565b90508073ffffffffffffffffffffffffffffffffffffffff168373ffffffffffffffffffffffffffffffffffffffff161415610713576040517f08c379a000000000000000000000000000000000000000000000000000000000815260040161070a90612a94565b60405180910390fd5b8073ffffffffffffffffffffffffffffffffffffffff16610732611560565b73ffffffffffffffffffffffffffffffffffffffff16148061076157506107608161075b611560565b61126e565b5b6107a0576040517f08c379a000000000000000000000000000000000000000000000000000000000815260040161079790612b26565b60405180910390fd5b6107aa8383611568565b505050565b6107c06107ba611560565b82611621565b6107ff576040517f08c379a00000000000000000000000000000000000000000000000000000000081526004016107f690612bb8565b60405180910390fd5b61080a8383836116b6565b505050565b61082a83838360405180602001604052806000815250610e2d565b505050565b816007600082815260200190815260200160002060020160009054906101000a900460ff161561088b576040517f8a54cfde00000000000000000000000000000000000000000000000000000000815260040160405180910390fd5b823373ffffffffffffffffffffffffffffffffffffffff166108ac82610ac3565b73ffffffffffffffffffffffffffffffffffffffff16146108f9576040517fa6b8ee9700000000000000000000000000000000000000000000000000000000815260040160405180910390fd5b6000600760008681526020019081526020016000209050838160000154101561094e576040517f11428de200000000000000000000000000000000000000000000000000000000815260040160405180910390fd5b838160000160008282546109629190612c07565b925050819055508381600101600082825461097d9190612c07565b9250508190555060003373ffffffffffffffffffffffffffffffffffffffff16856040516109aa90612c6c565b60006040518083038185875af1925050503d80600081146109e7576040519150601f19603f3d011682016040523d82523d6000602084013e6109ec565b606091505b5050905080610a27576040517f13e9cf9300000000000000000000000000000000000000000000000000000000815260040160405180910390fd5b857f56ca301a9219608c91e7bcee90e083c19671d2cdcc96752c7af291cee5f9c8c886604051610a579190612682565b60405180910390a2505050505050565b610a6f6121bd565b6007600083815260200190815260200160002060405180606001604052908160008201548152602001600182015481526020016002820160009054906101000a900460ff1615151515815250509050919050565b6000806002600084815260200190815260200160002060009054906101000a900473ffffffffffffffffffffffffffffffffffffffff169050600073ffffffffffffffffffffffffffffffffffffffff168173ffffffffffffffffffffffffffffffffffffffff161415610b6c576040517f08c379a0000000000000000000000000000000000000000000000000000000008152600401610b6390612ccd565b60405180910390fd5b80915050919050565b816007600082815260200190815260200160002060020160009054906101000a900460ff1615610bd1576040517f8a54cfde00000000000000000000000000000000000000000000000000000000815260040160405180910390fd5b823373ffffffffffffffffffffffffffffffffffffffff16610bf282610ac3565b73ffffffffffffffffffffffffffffffffffffffff1614610c3f576040517fa6b8ee9700000000000000000000000000000000000000000000000000000000815260040160405180910390fd5b826007600060085481526020019081526020016000206001016000828254610c679190612ced565b92505081905550833373ffffffffffffffffffffffffffffffffffffffff167fb9f80ad3df80ef01388eea216d311da0237d703429a3e8018f1854134c7003c385604051610cb59190612682565b60405180910390a350505050565b60008073ffffffffffffffffffffffffffffffffffffffff168273ffffffffffffffffffffffffffffffffffffffff161415610d34576040517f08c379a0000000000000000000000000000000000000000000000000000000008152600401610d2b90612db5565b60405180910390fd5b600360008373ffffffffffffffffffffffffffffffffffffffff1673ffffffffffffffffffffffffffffffffffffffff168152602001908152602001600020549050919050565b6000600854905090565b606060018054610d94906129f0565b80601f0160208091040260200160405190810160405280929190818152602001828054610dc0906129f0565b8015610e0d5780601f10610de257610100808354040283529160200191610e0d565b820191906000526020600020905b815481529060010190602001808311610df057829003601f168201915b5050505050905090565b610e29610e22611560565b838361191d565b5050565b610e3e610e38611560565b83611621565b610e7d576040517f08c379a0000000000000000000000000000000000000000000000000000000008152600401610e7490612bb8565b60405180910390fd5b610e8984848484611a8a565b50505050565b6060610e9a82611515565b6000600660008481526020019081526020016000208054610eba906129f0565b80601f0160208091040260200160405190810160405280929190818152602001828054610ee6906129f0565b8015610f335780601f10610f0857610100808354040283529160200191610f33565b820191906000526020600020905b815481529060010190602001808311610f1657829003601f168201915b505050505090506000610f44611ae6565b9050600081511415610f5a578192505050610f9d565b600082511115610f8f578082604051602001610f77929190612e11565b60405160208183030381529060405292505050610f9d565b610f9884611afd565b925050505b919050565b60086000815480929190610fb590612e35565b9190505550610fc633600854611b65565b61101660085484848080601f016020809104026020016040519081016040528093929190818152602001838380828437600081840152601f19601f82011690508083019250505050505050611b83565b80600760006008548152602001908152602001600020600101819055506008543373ffffffffffffffffffffffffffffffffffffffff167f6c3d2bd63ded3a40f4a1c835f570ec623cb9b219e164841cbedfb74d986c292b8360405161107c9190612682565b60405180910390a3505050565b803373ffffffffffffffffffffffffffffffffffffffff166110aa82610ac3565b73ffffffffffffffffffffffffffffffffffffffff16146110f7576040517fa6b8ee9700000000000000000000000000000000000000000000000000000000815260040160405180910390fd5b816007600082815260200190815260200160002060020160009054906101000a900460ff1615611153576040517f8a54cfde00000000000000000000000000000000000000000000000000000000815260040160405180910390fd5b60016007600085815260200190815260200160002060020160006101000a81548160ff02191690831515021790555060003373ffffffffffffffffffffffffffffffffffffffff1660076000868152602001908152602001600020600001546040516111be90612c6c565b60006040518083038185875af1925050503d80600081146111fb576040519150601f19603f3d011682016040523d82523d6000602084013e611200565b606091505b505090508061123b576040517f13e9cf9300000000000000000000000000000000000000000000000000000000815260040160405180910390fd5b837fabe114b53dd5fb550b3995d0a6366071f72e7d7853f5a3f9eb418defcbb643ec60405160405180910390a250505050565b6000600560008473ffffffffffffffffffffffffffffffffffffffff1673ffffffffffffffffffffffffffffffffffffffff16815260200190815260200160002060008373ffffffffffffffffffffffffffffffffffffffff1673ffffffffffffffffffffffffffffffffffffffff16815260200190815260200160002060009054906101000a900460ff16905092915050565b806007600082815260200190815260200160002060020160009054906101000a900460ff161561135e576040517f8a54cfde00000000000000000000000000000000000000000000000000000000815260040160405180910390fd5b6000341415611399576040517f4002f95800000000000000000000000000000000000000000000000000000000815260040160405180910390fd5b6113a282611bf7565b6113d8576040517f90e6ca3700000000000000000000000000000000000000000000000000000000815260040160405180910390fd5b600060076000848152602001908152602001600020905034816000015482600101546114049190612c07565b101561143c576040517fb5d3019d00000000000000000000000000000000000000000000000000000000815260040160405180910390fd5b348160000160008282546114509190612ced565b92505081905550823373ffffffffffffffffffffffffffffffffffffffff167f106aac375bbcf013d1e52338bbf9e740009a1a3a6869f8daa1b72aa1620f5fec3460405161149e9190612682565b60405180910390a3505050565b60007f01ffc9a7000000000000000000000000000000000000000000000000000000007bffffffffffffffffffffffffffffffffffffffffffffffffffffffff1916827bffffffffffffffffffffffffffffffffffffffffffffffffffffffff1916149050919050565b61151e81611bf7565b61155d576040517f08c379a000000000000000000000000000000000000000000000000000000000815260040161155490612ccd565b60405180910390fd5b50565b600033905090565b816004600083815260200190815260200160002060006101000a81548173ffffffffffffffffffffffffffffffffffffffff021916908373ffffffffffffffffffffffffffffffffffffffff160217905550808273ffffffffffffffffffffffffffffffffffffffff166115db83610ac3565b73ffffffffffffffffffffffffffffffffffffffff167f8c5be1e5ebec7d5bd14f71427d1e84f3dd0314c0f7b2291e5b200ac8c7c3b92560405160405180910390a45050565b60008061162d83610ac3565b90508073ffffffffffffffffffffffffffffffffffffffff168473ffffffffffffffffffffffffffffffffffffffff16148061166f575061166e818561126e565b5b806116ad57508373ffffffffffffffffffffffffffffffffffffffff1661169584610651565b73ffffffffffffffffffffffffffffffffffffffff16145b91505092915050565b8273ffffffffffffffffffffffffffffffffffffffff166116d682610ac3565b73ffffffffffffffffffffffffffffffffffffffff161461172c576040517f08c379a000000000000000000000000000000000000000000000000000000000815260040161172390612ef0565b60405180910390fd5b600073ffffffffffffffffffffffffffffffffffffffff168273ffffffffffffffffffffffffffffffffffffffff16141561179c576040517f08c379a000000000000000000000000000000000000000000000000000000000815260040161179390612f82565b60405180910390fd5b6117a7838383611c63565b6117b2600082611568565b6001600360008573ffffffffffffffffffffffffffffffffffffffff1673ffffffffffffffffffffffffffffffffffffffff16815260200190815260200160002060008282546118029190612c07565b925050819055506001600360008473ffffffffffffffffffffffffffffffffffffffff1673ffffffffffffffffffffffffffffffffffffffff16815260200190815260200160002060008282546118599190612ced565b92505081905550816002600083815260200190815260200160002060006101000a81548173ffffffffffffffffffffffffffffffffffffffff021916908373ffffffffffffffffffffffffffffffffffffffff160217905550808273ffffffffffffffffffffffffffffffffffffffff168473ffffffffffffffffffffffffffffffffffffffff167fddf252ad1be2c89b69c2b068fc378daa952ba7f163c4a11628f55a4df523b3ef60405160405180910390a4611918838383611c68565b505050565b8173ffffffffffffffffffffffffffffffffffffffff168373ffffffffffffffffffffffffffffffffffffffff16141561198c576040517f08c379a000000000000000000000000000000000000000000000000000000000815260040161198390612fee565b60405180910390fd5b80600560008573ffffffffffffffffffffffffffffffffffffffff1673ffffffffffffffffffffffffffffffffffffffff16815260200190815260200160002060008473ffffffffffffffffffffffffffffffffffffffff1673ffffffffffffffffffffffffffffffffffffffff16815260200190815260200160002060006101000a81548160ff0219169083151502179055508173ffffffffffffffffffffffffffffffffffffffff168373ffffffffffffffffffffffffffffffffffffffff167f17307eab39ab6107e8899845ad3d59bd9653f200f220920489ca2b5937696c3183604051611a7d9190612337565b60405180910390a3505050565b611a958484846116b6565b611aa184848484611c6d565b611ae0576040517f08c379a0000000000000000000000000000000000000000000000000000000008152600401611ad790613080565b60405180910390fd5b50505050565b606060405180602001604052806000815250905090565b6060611b0882611515565b6000611b12611ae6565b90506000815111611b325760405180602001604052806000815250611b5d565b80611b3c84611e04565b604051602001611b4d929190612e11565b6040516020818303038152906040525b915050919050565b611b7f828260405180602001604052806000815250611f65565b5050565b611b8c82611bf7565b611bcb576040517f08c379a0000000000000000000000000000000000000000000000000000000008152600401611bc290613112565b60405180910390fd5b80600660008481526020019081526020016000209080519060200190611bf29291906121e0565b505050565b60008073ffffffffffffffffffffffffffffffffffffffff166002600084815260200190815260200160002060009054906101000a900473ffffffffffffffffffffffffffffffffffffffff1673ffffffffffffffffffffffffffffffffffffffff1614159050919050565b505050565b505050565b6000611c8e8473ffffffffffffffffffffffffffffffffffffffff16611fc0565b15611df7578373ffffffffffffffffffffffffffffffffffffffff1663150b7a02611cb7611560565b8786866040518563ffffffff1660e01b8152600401611cd99493929190613187565b602060405180830381600087803b158015611cf357600080fd5b505af1925050508015611d2457506040513d601f19601f82011682018060405250810190611d2191906131e8565b60015b611da7573d8060008114611d54576040519150601f19603f3d011682016040523d82523d6000602084013e611d59565b606091505b50600081511415611d9f576040517f08c379a0000000000000000000000000000000000000000000000000000000008152600401611d9690613080565b60405180910390fd5b805181602001fd5b63150b7a0260e01b7bffffffffffffffffffffffffffffffffffffffffffffffffffffffff1916817bffffffffffffffffffffffffffffffffffffffffffffffffffffffff191614915050611dfc565b600190505b949350505050565b60606000821415611e4c576040518060400160405280600181526020017f30000000000000000000000000000000000000000000000000000000000000008152509050611f60565b600082905060005b60008214611e7e578080611e6790612e35565b915050600a82611e779190613244565b9150611e54565b60008167ffffffffffffffff811115611e9a57611e99612713565b5b6040519080825280601f01601f191660200182016040528015611ecc5781602001600182028036833780820191505090505b5090505b60008514611f5957600182611ee59190612c07565b9150600a85611ef49190613275565b6030611f009190612ced565b60f81b818381518110611f1657611f156132a6565b5b60200101907effffffffffffffffffffffffffffffffffffffffffffffffffffffffffffff1916908160001a905350600a85611f529190613244565b9450611ed0565b8093505050505b919050565b611f6f8383611fe3565b611f7c6000848484611c6d565b611fbb576040517f08c379a0000000000000000000000000000000000000000000000000000000008152600401611fb290613080565b60405180910390fd5b505050565b6000808273ffffffffffffffffffffffffffffffffffffffff163b119050919050565b600073ffffffffffffffffffffffffffffffffffffffff168273ffffffffffffffffffffffffffffffffffffffff161415612053576040517f08c379a000000000000000000000000000000000000000000000000000000000815260040161204a90613321565b60405180910390fd5b61205c81611bf7565b1561209c576040517f08c379a00000000000000000000000000000000000000000000000000000000081526004016120939061338d565b60405180910390fd5b6120a860008383611c63565b6001600360008473ffffffffffffffffffffffffffffffffffffffff1673ffffffffffffffffffffffffffffffffffffffff16815260200190815260200160002060008282546120f89190612ced565b92505081905550816002600083815260200190815260200160002060006101000a81548173ffffffffffffffffffffffffffffffffffffffff021916908373ffffffffffffffffffffffffffffffffffffffff160217905550808273ffffffffffffffffffffffffffffffffffffffff16600073ffffffffffffffffffffffffffffffffffffffff167fddf252ad1be2c89b69c2b068fc378daa952ba7f163c4a11628f55a4df523b3ef60405160405180910390a46121b960008383611c68565b5050565b604051806060016040528060008152602001600081526020016000151581525090565b8280546121ec906129f0565b90600052602060002090601f01602090048101928261220e5760008555612255565b82601f1061222757805160ff1916838001178555612255565b82800160010185558215612255579182015b82811115612254578251825591602001919060010190612239565b5b5090506122629190612266565b5090565b5b8082111561227f576000816000905550600101612267565b5090565b6000604051905090565b600080fd5b600080fd5b60007fffffffff0000000000000000000000000000000000000000000000000000000082169050919050565b6122cc81612297565b81146122d757600080fd5b50565b6000813590506122e9816122c3565b92915050565b6000602082840312156123055761230461228d565b5b6000612313848285016122da565b91505092915050565b60008115159050919050565b6123318161231c565b82525050565b600060208201905061234c6000830184612328565b92915050565b600081519050919050565b600082825260208201905092915050565b60005b8381101561238c578082015181840152602081019050612371565b8381111561239b576000848401525b50505050565b6000601f19601f8301169050919050565b60006123bd82612352565b6123c7818561235d565b93506123d781856020860161236e565b6123e0816123a1565b840191505092915050565b6000602082019050818103600083015261240581846123b2565b905092915050565b6000819050919050565b6124208161240d565b811461242b57600080fd5b50565b60008135905061243d81612417565b92915050565b6000602082840312156124595761245861228d565b5b60006124678482850161242e565b91505092915050565b600073ffffffffffffffffffffffffffffffffffffffff82169050919050565b600061249b82612470565b9050919050565b6124ab81612490565b82525050565b60006020820190506124c660008301846124a2565b92915050565b6124d581612490565b81146124e057600080fd5b50565b6000813590506124f2816124cc565b92915050565b6000806040838503121561250f5761250e61228d565b5b600061251d858286016124e3565b925050602061252e8582860161242e565b9150509250929050565b6000806000606084860312156125515761255061228d565b5b600061255f868287016124e3565b9350506020612570868287016124e3565b92505060406125818682870161242e565b9150509250925092565b600080604083850312156125a2576125a161228d565b5b60006125b08582860161242e565b92505060206125c18582860161242e565b9150509250929050565b6125d48161240d565b82525050565b6125e38161231c565b82525050565b6060820160008201516125ff60008501826125cb565b50602082015161261260208501826125cb565b50604082015161262560408501826125da565b50505050565b600060608201905061264060008301846125e9565b92915050565b60006020828403121561265c5761265b61228d565b5b600061266a848285016124e3565b91505092915050565b61267c8161240d565b82525050565b60006020820190506126976000830184612673565b92915050565b6126a68161231c565b81146126b157600080fd5b50565b6000813590506126c38161269d565b92915050565b600080604083850312156126e0576126df61228d565b5b60006126ee858286016124e3565b92505060206126ff858286016126b4565b9150509250929050565b600080fd5b600080fd5b7f4e487b7100000000000000000000000000000000000000000000000000000000600052604160045260246000fd5b61274b826123a1565b810181811067ffffffffffffffff8211171561276a57612769612713565b5b80604052505050565b600061277d612283565b90506127898282612742565b919050565b600067ffffffffffffffff8211156127a9576127a8612713565b5b6127b2826123a1565b9050602081019050919050565b82818337600083830152505050565b60006127e16127dc8461278e565b612773565b9050828152602081018484840111156127fd576127fc61270e565b5b6128088482856127bf565b509392505050565b600082601f83011261282557612824612709565b5b81356128358482602086016127ce565b91505092915050565b600080600080608085870312156128585761285761228d565b5b6000612866878288016124e3565b9450506020612877878288016124e3565b93505060406128888782880161242e565b925050606085013567ffffffffffffffff8111156128a9576128a8612292565b5b6128b587828801612810565b91505092959194509250565b600080fd5b600080fd5b60008083601f8401126128e1576128e0612709565b5b8235905067ffffffffffffffff8111156128fe576128fd6128c1565b5b60208301915083600182028301111561291a576129196128c6565b5b9250929050565b60008060006040848603121561293a5761293961228d565b5b600084013567ffffffffffffffff81111561295857612957612292565b5b612964868287016128cb565b935093505060206129778682870161242e565b9150509250925092565b600080604083850312156129985761299761228d565b5b60006129a6858286016124e3565b92505060206129b7858286016124e3565b9150509250929050565b7f4e487b7100000000000000000000000000000000000000000000000000000000600052602260045260246000fd5b60006002820490506001821680612a0857607f821691505b60208210811415612a1c57612a1b6129c1565b5b50919050565b7f4552433732313a20617070726f76616c20746f2063757272656e74206f776e6560008201527f7200000000000000000000000000000000000000000000000000000000000000602082015250565b6000612a7e60218361235d565b9150612a8982612a22565b604082019050919050565b60006020820190508181036000830152612aad81612a71565b9050919050565b7f4552433732313a20617070726f76652063616c6c6572206973206e6f7420746f60008201527f6b656e206f776e6572206e6f7220617070726f76656420666f7220616c6c0000602082015250565b6000612b10603e8361235d565b9150612b1b82612ab4565b604082019050919050565b60006020820190508181036000830152612b3f81612b03565b9050919050565b7f4552433732313a2063616c6c6572206973206e6f7420746f6b656e206f776e6560008201527f72206e6f7220617070726f766564000000000000000000000000000000000000602082015250565b6000612ba2602e8361235d565b9150612bad82612b46565b604082019050919050565b60006020820190508181036000830152612bd181612b95565b9050919050565b7f4e487b7100000000000000000000000000000000000000000000000000000000600052601160045260246000fd5b6000612c128261240d565b9150612c1d8361240d565b925082821015612c3057612c2f612bd8565b5b828203905092915050565b600081905092915050565b50565b6000612c56600083612c3b565b9150612c6182612c46565b600082019050919050565b6000612c7782612c49565b9150819050919050565b7f4552433732313a20696e76616c696420746f6b656e2049440000000000000000600082015250565b6000612cb760188361235d565b9150612cc282612c81565b602082019050919050565b60006020820190508181036000830152612ce681612caa565b9050919050565b6000612cf88261240d565b9150612d038361240d565b9250827fffffffffffffffffffffffffffffffffffffffffffffffffffffffffffffffff03821115612d3857612d37612bd8565b5b828201905092915050565b7f4552433732313a2061646472657373207a65726f206973206e6f74206120766160008201527f6c6964206f776e65720000000000000000000000000000000000000000000000602082015250565b6000612d9f60298361235d565b9150612daa82612d43565b604082019050919050565b60006020820190508181036000830152612dce81612d92565b9050919050565b600081905092915050565b6000612deb82612352565b612df58185612dd5565b9350612e0581856020860161236e565b80840191505092915050565b6000612e1d8285612de0565b9150612e298284612de0565b91508190509392505050565b6000612e408261240d565b91507fffffffffffffffffffffffffffffffffffffffffffffffffffffffffffffffff821415612e7357612e72612bd8565b5b600182019050919050565b7f4552433732313a207472616e736665722066726f6d20696e636f72726563742060008201527f6f776e6572000000000000000000000000000000000000000000000000000000602082015250565b6000612eda60258361235d565b9150612ee582612e7e565b604082019050919050565b60006020820190508181036000830152612f0981612ecd565b9050919050565b7f4552433732313a207472616e7366657220746f20746865207a65726f2061646460008201527f7265737300000000000000000000000000000000000000000000000000000000602082015250565b6000612f6c60248361235d565b9150612f7782612f10565b604082019050919050565b60006020820190508181036000830152612f9b81612f5f565b9050919050565b7f4552433732313a20617070726f766520746f2063616c6c657200000000000000600082015250565b6000612fd860198361235d565b9150612fe382612fa2565b602082019050919050565b6000602082019050818103600083015261300781612fcb565b9050919050565b7f4552433732313a207472616e7366657220746f206e6f6e20455243373231526560008201527f63656976657220696d706c656d656e7465720000000000000000000000000000602082015250565b600061306a60328361235d565b91506130758261300e565b604082019050919050565b600060208201905081810360008301526130998161305d565b9050919050565b7f45524337323155524953746f726167653a2055524920736574206f66206e6f6e60008201527f6578697374656e7420746f6b656e000000000000000000000000000000000000602082015250565b60006130fc602e8361235d565b9150613107826130a0565b604082019050919050565b6000602082019050818103600083015261312b816130ef565b9050919050565b600081519050919050565b600082825260208201905092915050565b600061315982613132565b613163818561313d565b935061317381856020860161236e565b61317c816123a1565b840191505092915050565b600060808201905061319c60008301876124a2565b6131a960208301866124a2565b6131b66040830185612673565b81810360608301526131c8818461314e565b905095945050505050565b6000815190506131e2816122c3565b92915050565b6000602082840312156131fe576131fd61228d565b5b600061320c848285016131d3565b91505092915050565b7f4e487b7100000000000000000000000000000000000000000000000000000000600052601260045260246000fd5b600061324f8261240d565b915061325a8361240d565b92508261326a57613269613215565b5b828204905092915050565b60006132808261240d565b915061328b8361240d565b92508261329b5761329a613215565b5b828206905092915050565b7f4e487b7100000000000000000000000000000000000000000000000000000000600052603260045260246000fd5b7f4552433732313a206d696e7420746f20746865207a65726f2061646472657373600082015250565b600061330b60208361235d565b9150613316826132d5565b602082019050919050565b6000602082019050818103600083015261333a816132fe565b9050919050565b7f4552433732313a20746f6b656e20616c7265616479206d696e74656400000000600082015250565b6000613377601c8361235d565b915061338282613341565b602082019050919050565b600060208201905081810360008301526133a68161336a565b905091905056fea2646970667358221220b180ef6a0c3506d5ac6e0ecd41ad345554994fa509078eaf907dfe3297074f7864736f6c63430008090033",
  "devdoc": {
    "author": "Buildit Team",
    "kind": "dev",
    "methods": {
      "approve(address,uint256)": {
        "details": "See {IERC721-approve}."
      },
      "balanceOf(address)": {
        "details": "See {IERC721-balanceOf}."
      },
      "donate(uint256)": {
        "details": "adds up msg.value received to campaign",
        "params": {
          "tokenId": "used to identify campaign"
        }
      },
      "endCampaign(uint256)": {
        "details": "marks campaign as completed & sends amount to owner",
        "params": {
          "tokenId": "used to identify campaign"
        }
      },
      "extendCampaign(uint256,uint256)": {
        "details": "mints a Fundraiser NFT with given metadata & Stores requiredAmt to Struct mapped using tokenId",
        "params": {
          "extendAmt": "add extra amount to existing Campaign",
          "tokenId": "used to identify token"
        }
      },
      "getApproved(uint256)": {
        "details": "See {IERC721-getApproved}."
      },
      "getCampaign(uint256)": {
        "details": "identify Campaign from s_idToCampaign & return",
        "params": {
          "tokenId": "used to identify campaign"
        }
      },
      "getLastTokenId()": {
        "details": "returns s_tokenId private variable"
      },
      "isApprovedForAll(address,address)": {
        "details": "See {IERC721-isApprovedForAll}."
      },
      "name()": {
        "details": "See {IERC721Metadata-name}."
      },
      "ownerOf(uint256)": {
        "details": "See {IERC721-ownerOf}."
      },
      "safeTransferFrom(address,address,uint256)": {
        "details": "See {IERC721-safeTransferFrom}."
      },
      "safeTransferFrom(address,address,uint256,bytes)": {
        "details": "See {IERC721-safeTransferFrom}."
      },
      "setApprovalForAll(address,bool)": {
        "details": "See {IERC721-setApprovalForAll}."
      },
      "startCampaign(string,uint256)": {
        "details": "mints a Fundraiser NFT with given metadata & Stores requiredAmt to Struct mapped using tokenId",
        "params": {
          "_requiredAmt": "the total required amount",
          "_tokenURI": "IPFS hash of metadata"
        }
      },
      "supportsInterface(bytes4)": {
        "details": "See {IERC165-supportsInterface}."
      },
      "symbol()": {
        "details": "See {IERC721Metadata-symbol}."
      },
      "tokenURI(uint256)": {
        "details": "See {IERC721Metadata-tokenURI}."
      },
      "transferFrom(address,address,uint256)": {
        "details": "See {IERC721-transferFrom}."
      },
      "withdraw(uint256,uint256)": {
        "details": "withdraw give amount,also reduce that from required & currAmt",
        "params": {
          "amount": "specify amount to withdraw",
          "tokenId": "used to identify campaign"
        }
      }
    },
    "title": "Fundraiser",
    "version": 1
  },
  "userdoc": {
    "kind": "user",
    "methods": {
      "donate(uint256)": {
        "notice": "Donate to a campaign"
      },
      "endCampaign(uint256)": {
        "notice": "end the campaign and withdraw all"
      },
      "extendCampaign(uint256,uint256)": {
        "notice": "Extends a campaign"
      },
      "getCampaign(uint256)": {
        "notice": "get Campaign details"
      },
      "getLastTokenId()": {
        "notice": "get last minted tokenId"
      },
      "startCampaign(string,uint256)": {
        "notice": "Starts a campaign"
      },
      "withdraw(uint256,uint256)": {
        "notice": "Withdraw amount from campaign"
      }
    },
    "version": 1
  },
  "storageLayout": {
    "storage": [
      {
        "astId": 25,
        "contract": "contracts/Fundraiser.sol:Fundraiser",
        "label": "_name",
        "offset": 0,
        "slot": "0",
        "type": "t_string_storage"
      },
      {
        "astId": 27,
        "contract": "contracts/Fundraiser.sol:Fundraiser",
        "label": "_symbol",
        "offset": 0,
        "slot": "1",
        "type": "t_string_storage"
      },
      {
        "astId": 31,
        "contract": "contracts/Fundraiser.sol:Fundraiser",
        "label": "_owners",
        "offset": 0,
        "slot": "2",
        "type": "t_mapping(t_uint256,t_address)"
      },
      {
        "astId": 35,
        "contract": "contracts/Fundraiser.sol:Fundraiser",
        "label": "_balances",
        "offset": 0,
        "slot": "3",
        "type": "t_mapping(t_address,t_uint256)"
      },
      {
        "astId": 39,
        "contract": "contracts/Fundraiser.sol:Fundraiser",
        "label": "_tokenApprovals",
        "offset": 0,
        "slot": "4",
        "type": "t_mapping(t_uint256,t_address)"
      },
      {
        "astId": 45,
        "contract": "contracts/Fundraiser.sol:Fundraiser",
        "label": "_operatorApprovals",
        "offset": 0,
        "slot": "5",
        "type": "t_mapping(t_address,t_mapping(t_address,t_bool))"
      },
      {
        "astId": 1013,
        "contract": "contracts/Fundraiser.sol:Fundraiser",
        "label": "_tokenURIs",
        "offset": 0,
        "slot": "6",
        "type": "t_mapping(t_uint256,t_string_storage)"
      },
      {
        "astId": 1763,
        "contract": "contracts/Fundraiser.sol:Fundraiser",
        "label": "s_idToCampaign",
        "offset": 0,
        "slot": "7",
        "type": "t_mapping(t_uint256,t_struct(Campaign)1758_storage)"
      },
      {
        "astId": 1765,
        "contract": "contracts/Fundraiser.sol:Fundraiser",
        "label": "s_tokenId",
        "offset": 0,
        "slot": "8",
        "type": "t_uint256"
      }
    ],
    "types": {
      "t_address": {
        "encoding": "inplace",
        "label": "address",
        "numberOfBytes": "20"
      },
      "t_bool": {
        "encoding": "inplace",
        "label": "bool",
        "numberOfBytes": "1"
      },
      "t_mapping(t_address,t_bool)": {
        "encoding": "mapping",
        "key": "t_address",
        "label": "mapping(address => bool)",
        "numberOfBytes": "32",
        "value": "t_bool"
      },
      "t_mapping(t_address,t_mapping(t_address,t_bool))": {
        "encoding": "mapping",
        "key": "t_address",
        "label": "mapping(address => mapping(address => bool))",
        "numberOfBytes": "32",
        "value": "t_mapping(t_address,t_bool)"
      },
      "t_mapping(t_address,t_uint256)": {
        "encoding": "mapping",
        "key": "t_address",
        "label": "mapping(address => uint256)",
        "numberOfBytes": "32",
        "value": "t_uint256"
      },
      "t_mapping(t_uint256,t_address)": {
        "encoding": "mapping",
        "key": "t_uint256",
        "label": "mapping(uint256 => address)",
        "numberOfBytes": "32",
        "value": "t_address"
      },
      "t_mapping(t_uint256,t_string_storage)": {
        "encoding": "mapping",
        "key": "t_uint256",
        "label": "mapping(uint256 => string)",
        "numberOfBytes": "32",
        "value": "t_string_storage"
      },
      "t_mapping(t_uint256,t_struct(Campaign)1758_storage)": {
        "encoding": "mapping",
        "key": "t_uint256",
        "label": "mapping(uint256 => struct Fundraiser.Campaign)",
        "numberOfBytes": "32",
        "value": "t_struct(Campaign)1758_storage"
      },
      "t_string_storage": {
        "encoding": "bytes",
        "label": "string",
        "numberOfBytes": "32"
      },
      "t_struct(Campaign)1758_storage": {
        "encoding": "inplace",
        "label": "struct Fundraiser.Campaign",
        "members": [
          {
            "astId": 1753,
            "contract": "contracts/Fundraiser.sol:Fundraiser",
            "label": "currAmt",
            "offset": 0,
            "slot": "0",
            "type": "t_uint256"
          },
          {
            "astId": 1755,
            "contract": "contracts/Fundraiser.sol:Fundraiser",
            "label": "requiredAmt",
            "offset": 0,
            "slot": "1",
            "type": "t_uint256"
          },
          {
            "astId": 1757,
            "contract": "contracts/Fundraiser.sol:Fundraiser",
            "label": "completed",
            "offset": 0,
            "slot": "2",
            "type": "t_bool"
          }
        ],
        "numberOfBytes": "96"
      },
      "t_uint256": {
        "encoding": "inplace",
        "label": "uint256",
        "numberOfBytes": "32"
      }
    }
  }
}